{
  "address": "0x5FbDB2315678afecb367f032d93F642f64180aa3",
  "abi": [
    {
      "inputs": [],
      "name": "Kill",
      "outputs": [],
      "stateMutability": "nonpayable",
      "type": "function"
    },
    {
      "inputs": [],
      "name": "deposit",
      "outputs": [],
      "stateMutability": "payable",
      "type": "function"
    },
    {
      "inputs": [],
      "name": "getBalance",
      "outputs": [
        {
          "internalType": "uint256",
          "name": "",
          "type": "uint256"
        }
      ],
      "stateMutability": "view",
      "type": "function"
    },
    {
      "inputs": [],
      "name": "owner",
      "outputs": [
        {
          "internalType": "address",
          "name": "",
          "type": "address"
        }
      ],
      "stateMutability": "view",
      "type": "function"
    },
    {
      "inputs": [
        {
          "internalType": "uint256",
          "name": "_amount",
          "type": "uint256"
        }
      ],
      "name": "withDraw",
      "outputs": [],
      "stateMutability": "nonpayable",
      "type": "function"
    }
  ],
  "transactionHash": "0xd7cf6f5d3514ff5b0f35c037a6579441a431a266216e4a688402e97a025feafe",
  "args": [],
  "numDeployments": 1,
  "solcInputHash": "edfc245ba79926942240eaaccf4884a6",
  "bytecode": "0x6080604052336000806101000a81548173ffffffffffffffffffffffffffffffffffffffff021916908373ffffffffffffffffffffffffffffffffffffffff16021790555034801561005057600080fd5b5061071e806100606000396000f3fe60806040526004361061004a5760003560e01c806312065fe01461004f57806314174f331461007a5780638da5cb5b146100a3578063be26733c146100ce578063d0e30db0146100e5575b600080fd5b34801561005b57600080fd5b506100646100ef565b60405161007191906103bb565b60405180910390f35b34801561008657600080fd5b506100a1600480360381019061009c9190610407565b6100f7565b005b3480156100af57600080fd5b506100b861027f565b6040516100c59190610475565b60405180910390f35b3480156100da57600080fd5b506100e36102a3565b005b6100ed61034a565b005b600047905090565b80600160003373ffffffffffffffffffffffffffffffffffffffff1673ffffffffffffffffffffffffffffffffffffffff168152602001908152602001600020541015610179576040517f08c379a0000000000000000000000000000000000000000000000000000000008152600401610170906104ed565b60405180910390fd5b80600160003373ffffffffffffffffffffffffffffffffffffffff1673ffffffffffffffffffffffffffffffffffffffff16815260200190815260200160002060008282546101c8919061053c565b9250508190555060003373ffffffffffffffffffffffffffffffffffffffff16826040516101f5906105c7565b60006040518083038185875af1925050503d8060008114610232576040519150601f19603f3d011682016040523d82523d6000602084013e610237565b606091505b505090508061027b576040517f08c379a000000000000000000000000000000000000000000000000000000000815260040161027290610628565b60405180910390fd5b5050565b60008054906101000a900473ffffffffffffffffffffffffffffffffffffffff1681565b60008054906101000a900473ffffffffffffffffffffffffffffffffffffffff1673ffffffffffffffffffffffffffffffffffffffff163373ffffffffffffffffffffffffffffffffffffffff1614610331576040517f08c379a000000000000000000000000000000000000000000000000000000000815260040161032890610694565b60405180910390fd5b3373ffffffffffffffffffffffffffffffffffffffff16ff5b34600160003373ffffffffffffffffffffffffffffffffffffffff1673ffffffffffffffffffffffffffffffffffffffff168152602001908152602001600020600082825461039991906106b4565b92505081905550565b6000819050919050565b6103b5816103a2565b82525050565b60006020820190506103d060008301846103ac565b92915050565b600080fd5b6103e4816103a2565b81146103ef57600080fd5b50565b600081359050610401816103db565b92915050565b60006020828403121561041d5761041c6103d6565b5b600061042b848285016103f2565b91505092915050565b600073ffffffffffffffffffffffffffffffffffffffff82169050919050565b600061045f82610434565b9050919050565b61046f81610454565b82525050565b600060208201905061048a6000830184610466565b92915050565b600082825260208201905092915050565b7f6572726f72202c2c20696e73756666696369656e7420616d6f756e7400000000600082015250565b60006104d7601c83610490565b91506104e2826104a1565b602082019050919050565b60006020820190508181036000830152610506816104ca565b9050919050565b7f4e487b7100000000000000000000000000000000000000000000000000000000600052601160045260246000fd5b6000610547826103a2565b9150610552836103a2565b925082820390508181111561056a5761056961050d565b5b92915050565b600081905092915050565b7f73656e6400000000000000000000000000000000000000000000000000000000600082015250565b60006105b1600483610570565b91506105bc8261057b565b600482019050919050565b60006105d2826105a4565b9150819050919050565b7f4661696c656420746f20436f6d706c6574650000000000000000000000000000600082015250565b6000610612601283610490565b915061061d826105dc565b602082019050919050565b6000602082019050818103600083015261064181610605565b9050919050565b7f796f7520617265206e6f74206f776e6572000000000000000000000000000000600082015250565b600061067e601183610490565b915061068982610648565b602082019050919050565b600060208201905081810360008301526106ad81610671565b9050919050565b60006106bf826103a2565b91506106ca836103a2565b92508282019050808211156106e2576106e161050d565b5b9291505056fea264697066735822122003dd127aa2ac99476209518d21435fd0d31c1f55d9b2ef5e77ec40c122565a5964736f6c63430008110033",
  "devdoc": {
    "kind": "dev",
    "methods": {},
    "version": 1
  },
  "userdoc": {
    "kind": "user",
    "methods": {},
    "version": 1
  },
  "storageLayout": {
    "storage": [
      {
        "astId": 84,
        "contract": "contracts/simple-contract.sol:simpleContract",
        "label": "owner",
        "offset": 0,
        "slot": "0",
        "type": "t_address"
      },
      {
        "astId": 88,
        "contract": "contracts/simple-contract.sol:simpleContract",
        "label": "balances",
        "offset": 0,
        "slot": "1",
        "type": "t_mapping(t_address,t_uint256)"
      }
    ],
    "types": {
      "t_address": {
        "encoding": "inplace",
        "label": "address",
        "numberOfBytes": "20"
      },
      "t_mapping(t_address,t_uint256)": {
        "encoding": "mapping",
        "key": "t_address",
        "label": "mapping(address => uint256)",
        "numberOfBytes": "32",
        "value": "t_uint256"
      },
      "t_uint256": {
        "encoding": "inplace",
        "label": "uint256",
        "numberOfBytes": "32"
      }
    }
  }
}